{
  "contractName": "CMCOracle",
  "abi": [
    {
      "constant": true,
      "inputs": [],
      "name": "marketCap",
      "outputs": [
        {
          "name": "",
          "type": "uint256"
        }
      ],
      "payable": false,
      "stateMutability": "view",
      "type": "function"
    },
    {
      "constant": true,
      "inputs": [
        {
          "name": "",
          "type": "address"
        }
      ],
      "name": "purchasers",
      "outputs": [
        {
          "name": "",
          "type": "uint256"
        }
      ],
      "payable": false,
      "stateMutability": "view",
      "type": "function"
    },
    {
      "constant": true,
      "inputs": [],
      "name": "oracleFee",
      "outputs": [
        {
          "name": "",
          "type": "uint256"
        }
      ],
      "payable": false,
      "stateMutability": "view",
      "type": "function"
    },
    {
      "inputs": [],
      "payable": false,
      "stateMutability": "nonpayable",
      "type": "constructor"
    },
    {
      "payable": true,
      "stateMutability": "payable",
      "type": "fallback"
    },
    {
      "anonymous": false,
      "inputs": [],
      "name": "CallbackMarketCap",
      "type": "event"
    },
    {
      "constant": false,
      "inputs": [],
      "name": "updateMarketCap",
      "outputs": [],
      "payable": true,
      "stateMutability": "payable",
      "type": "function"
    },
    {
      "constant": false,
      "inputs": [
        {
          "name": "cap",
          "type": "uint256"
        }
      ],
      "name": "setMarketCap",
      "outputs": [],
      "payable": false,
      "stateMutability": "nonpayable",
      "type": "function"
    },
    {
      "constant": true,
      "inputs": [],
      "name": "getBalance",
      "outputs": [
        {
          "name": "",
          "type": "uint256"
        }
      ],
      "payable": false,
      "stateMutability": "view",
      "type": "function"
    },
    {
      "constant": false,
      "inputs": [
        {
          "name": "fee",
          "type": "uint256"
        }
      ],
      "name": "setOracleFee",
      "outputs": [],
      "payable": false,
      "stateMutability": "nonpayable",
      "type": "function"
    },
    {
      "constant": false,
      "inputs": [],
      "name": "withdrawEther",
      "outputs": [],
      "payable": false,
      "stateMutability": "nonpayable",
      "type": "function"
    }
  ],
  "bytecode": "0x6060604052341561000f57600080fd5b336000806101000a81548173ffffffffffffffffffffffffffffffffffffffff021916908373ffffffffffffffffffffffffffffffffffffffff1602179055506104378061005e6000396000f30060606040526004361061008e576000357c0100000000000000000000000000000000000000000000000000000000900463ffffffff16806312065fe0146100905780632c135b93146100b957806339ad0212146100e25780637362377b1461012f57806375f9090d14610144578063b6d9ef601461014e578063ec710c7e14610171578063f9cd3ceb14610194575b005b341561009b57600080fd5b6100a36101bd565b6040518082815260200191505060405180910390f35b34156100c457600080fd5b6100cc6101dc565b6040518082815260200191505060405180910390f35b34156100ed57600080fd5b610119600480803573ffffffffffffffffffffffffffffffffffffffff169060200190919050506101e2565b6040518082815260200191505060405180910390f35b341561013a57600080fd5b6101426101fa565b005b61014c6102ae565b005b341561015957600080fd5b61016f600480803590602001909190505061033b565b005b341561017c57600080fd5b61019260048080359060200190919050506103a0565b005b341561019f57600080fd5b6101a7610405565b6040518082815260200191505060405180910390f35b60003073ffffffffffffffffffffffffffffffffffffffff1631905090565b60015481565b60036020528060005260406000206000915090505481565b6000809054906101000a900473ffffffffffffffffffffffffffffffffffffffff1673ffffffffffffffffffffffffffffffffffffffff163373ffffffffffffffffffffffffffffffffffffffff1614151561025557600080fd5b3373ffffffffffffffffffffffffffffffffffffffff166108fc3073ffffffffffffffffffffffffffffffffffffffff16319081150290604051600060405180830381858888f1935050505015156102ac57600080fd5b565b6002543410156102bd57610339565b600360003373ffffffffffffffffffffffffffffffffffffffff1673ffffffffffffffffffffffffffffffffffffffff168152602001908152602001600020600081548092919060010191905055507fd9f19cbab7d5e6f0fbe39dca2a2f43acd3e42606cf8907d60a4985a450f5b44960405160405180910390a15b565b6000809054906101000a900473ffffffffffffffffffffffffffffffffffffffff1673ffffffffffffffffffffffffffffffffffffffff163373ffffffffffffffffffffffffffffffffffffffff1614151561039657600080fd5b8060028190555050565b6000809054906101000a900473ffffffffffffffffffffffffffffffffffffffff1673ffffffffffffffffffffffffffffffffffffffff163373ffffffffffffffffffffffffffffffffffffffff161415156103fb57600080fd5b8060018190555050565b600254815600a165627a7a723058203aeb838fbe90acb68d9e9450a711e29c86af87f10e61bb537a711f07eb90f5350029",
  "source": "pragma solidity ^0.4.19;\n\n\ncontract CMCOracle {\n    // Contract owner\n    address owner;\n    \n    // BTC Marketcap Storage\n    uint public marketCap;\n    uint256 public oracleFee;\n    \n    mapping (address => uint) public purchasers;\n\n    function CMCOracle() public {\n        owner = msg.sender;\n    }\n    \n    // Callback function\n    event CallbackMarketCap();\n\n    function () public payable {\n    } \n\n    function updateMarketCap() public payable {\n        \n        if (msg.value < oracleFee) return;     \n        // Calls the callback function\n        purchasers[msg.sender]++; \n        CallbackMarketCap();              \n    }\n\n    function setMarketCap(uint cap) public {\n        // If it isn't sent by a trusted oracle\n        // a.k.a ourselves, ignore it\n        require(msg.sender == owner);\n        marketCap = cap;\n    }\n\n    function getBalance() public view returns (uint256) {\n        return address(this).balance;\n    }\n\n    function setOracleFee(uint256 fee) public {\n        // If it isn't sent by a trusted oracle a.k.a ourselves, ignore it\n        require(msg.sender == owner);\n        oracleFee = fee;\n    }\n\n    function withdrawEther() public {\n        require(msg.sender == owner);\n        msg.sender.transfer(this.balance);\n    }\n}",
  "sourcePath": "/Users/taff/Development/Ethereum/oracle/oracle-cmc/contracts/CMCOracle.sol",
  "compiler": {
    "name": "solc",
    "version": "0.4.19+commit.c4cbbb05.Emscripten.clang"
  },
  "schemaVersion": "2.0.0",
  "updatedAt": "2018-04-08T20:59:17.438Z"
}