{
  "contractName": "CMCOracle",
  "abi": [
    {
      "constant": true,
      "inputs": [
        {
          "name": "",
          "type": "address"
        }
      ],
      "name": "purchasers",
      "outputs": [
        {
          "name": "",
          "type": "uint256"
        }
      ],
      "payable": false,
      "stateMutability": "view",
      "type": "function"
    },
    {
      "constant": true,
      "inputs": [],
      "name": "owner",
      "outputs": [
        {
          "name": "",
          "type": "address"
        }
      ],
      "payable": false,
      "stateMutability": "view",
      "type": "function"
    },
    {
      "constant": false,
      "inputs": [
        {
          "name": "newOwner",
          "type": "address"
        }
      ],
      "name": "transferOwnership",
      "outputs": [],
      "payable": false,
      "stateMutability": "nonpayable",
      "type": "function"
    },
    {
      "constant": true,
      "inputs": [],
      "name": "oracleFee",
      "outputs": [
        {
          "name": "",
          "type": "uint256"
        }
      ],
      "payable": false,
      "stateMutability": "view",
      "type": "function"
    },
    {
      "inputs": [],
      "payable": false,
      "stateMutability": "nonpayable",
      "type": "constructor"
    },
    {
      "payable": true,
      "stateMutability": "payable",
      "type": "fallback"
    },
    {
      "anonymous": false,
      "inputs": [],
      "name": "CallbackMarketCap",
      "type": "event"
    },
    {
      "anonymous": false,
      "inputs": [
        {
          "indexed": true,
          "name": "previousOwner",
          "type": "address"
        },
        {
          "indexed": true,
          "name": "newOwner",
          "type": "address"
        }
      ],
      "name": "OwnershipTransferred",
      "type": "event"
    },
    {
      "constant": false,
      "inputs": [
        {
          "name": "cap",
          "type": "uint256"
        }
      ],
      "name": "setMarketCap",
      "outputs": [],
      "payable": false,
      "stateMutability": "nonpayable",
      "type": "function"
    },
    {
      "constant": false,
      "inputs": [],
      "name": "withdrawEther",
      "outputs": [],
      "payable": false,
      "stateMutability": "nonpayable",
      "type": "function"
    },
    {
      "constant": false,
      "inputs": [
        {
          "name": "fee",
          "type": "uint256"
        }
      ],
      "name": "setOracleFee",
      "outputs": [],
      "payable": false,
      "stateMutability": "nonpayable",
      "type": "function"
    },
    {
      "constant": false,
      "inputs": [],
      "name": "updateMarketCap",
      "outputs": [],
      "payable": true,
      "stateMutability": "payable",
      "type": "function"
    },
    {
      "constant": true,
      "inputs": [],
      "name": "getBalance",
      "outputs": [
        {
          "name": "",
          "type": "uint256"
        }
      ],
      "payable": false,
      "stateMutability": "view",
      "type": "function"
    }
  ],
  "bytecode": "0x6060604052341561000f57600080fd5b336000806101000a81548173ffffffffffffffffffffffffffffffffffffffff021916908373ffffffffffffffffffffffffffffffffffffffff160217905550336000806101000a81548173ffffffffffffffffffffffffffffffffffffffff021916908373ffffffffffffffffffffffffffffffffffffffff1602179055506105db8061009e6000396000f300606060405260043610610099576000357c0100000000000000000000000000000000000000000000000000000000900463ffffffff16806312065fe01461009b57806339ad0212146100c45780637362377b1461011157806375f9090d146101265780638da5cb5b14610130578063b6d9ef6014610185578063ec710c7e146101a8578063f2fde38b146101cb578063f9cd3ceb14610204575b005b34156100a657600080fd5b6100ae61022d565b6040518082815260200191505060405180910390f35b34156100cf57600080fd5b6100fb600480803573ffffffffffffffffffffffffffffffffffffffff1690602001909190505061024c565b6040518082815260200191505060405180910390f35b341561011c57600080fd5b610124610264565b005b61012e610318565b005b341561013b57600080fd5b6101436103a5565b604051808273ffffffffffffffffffffffffffffffffffffffff1673ffffffffffffffffffffffffffffffffffffffff16815260200191505060405180910390f35b341561019057600080fd5b6101a660048080359060200190919050506103ca565b005b34156101b357600080fd5b6101c9600480803590602001909190505061042f565b005b34156101d657600080fd5b610202600480803573ffffffffffffffffffffffffffffffffffffffff16906020019091905050610494565b005b341561020f57600080fd5b6102176105a9565b6040518082815260200191505060405180910390f35b60003073ffffffffffffffffffffffffffffffffffffffff1631905090565b60036020528060005260406000206000915090505481565b6000809054906101000a900473ffffffffffffffffffffffffffffffffffffffff1673ffffffffffffffffffffffffffffffffffffffff163373ffffffffffffffffffffffffffffffffffffffff161415156102bf57600080fd5b3373ffffffffffffffffffffffffffffffffffffffff166108fc3073ffffffffffffffffffffffffffffffffffffffff16319081150290604051600060405180830381858888f19350505050151561031657600080fd5b565b600254341015610327576103a3565b600360003373ffffffffffffffffffffffffffffffffffffffff1673ffffffffffffffffffffffffffffffffffffffff168152602001908152602001600020600081548092919060010191905055507fd9f19cbab7d5e6f0fbe39dca2a2f43acd3e42606cf8907d60a4985a450f5b44960405160405180910390a15b565b6000809054906101000a900473ffffffffffffffffffffffffffffffffffffffff1681565b6000809054906101000a900473ffffffffffffffffffffffffffffffffffffffff1673ffffffffffffffffffffffffffffffffffffffff163373ffffffffffffffffffffffffffffffffffffffff1614151561042557600080fd5b8060028190555050565b6000809054906101000a900473ffffffffffffffffffffffffffffffffffffffff1673ffffffffffffffffffffffffffffffffffffffff163373ffffffffffffffffffffffffffffffffffffffff1614151561048a57600080fd5b8060018190555050565b6000809054906101000a900473ffffffffffffffffffffffffffffffffffffffff1673ffffffffffffffffffffffffffffffffffffffff163373ffffffffffffffffffffffffffffffffffffffff161415156104ef57600080fd5b600073ffffffffffffffffffffffffffffffffffffffff168173ffffffffffffffffffffffffffffffffffffffff161415151561052b57600080fd5b8073ffffffffffffffffffffffffffffffffffffffff166000809054906101000a900473ffffffffffffffffffffffffffffffffffffffff1673ffffffffffffffffffffffffffffffffffffffff167f8be0079c531659141344cd1fd0a4f28419497f9722a3daafe3b4186f6b6457e060405160405180910390a350565b600254815600a165627a7a72305820126104af7fe437b453df456eaa3fa8241c7ec0585bcd2553df1b07b03b8521050029",
  "source": "pragma solidity ^0.4.21;\n\nimport \"./ownable.sol\";\n\n\ncontract CMCOracle is Ownable {\n    \n    // BTC Marketcap Storage\n    uint private marketCap;\n    uint256 public oracleFee;\n    \n    mapping (address => uint) public purchasers;\n    \n    // Callback function\n    event CallbackMarketCap();\n\n    function CMCOracle() public {\n        owner = msg.sender;\n    }\n    \n    function () public payable {\n    } \n        \n    function setMarketCap(uint cap) external onlyOwner {\n        marketCap = cap;\n    }\n    \n    function withdrawEther() external onlyOwner {\n        msg.sender.transfer(address(this).balance);\n    }\n\n    function setOracleFee(uint256 fee) external onlyOwner {\n        oracleFee = fee;\n    }\n    \n    function updateMarketCap() public payable {        \n        if (msg.value < oracleFee) return;     \n        // Calls the callback function\n        purchasers[msg.sender]++; \n        emit CallbackMarketCap();              \n    }\n    \n    function getBalance() public view returns (uint256) {\n        return address(this).balance;\n    }\n}",
  "sourcePath": "/Users/taff/Development/Ethereum/oracle/oracle-cmc/contracts/CMCOracle.sol",
  "compiler": {
    "name": "solc",
    "version": "0.4.21+commit.dfe3193c.Emscripten.clang"
  },
  "schemaVersion": "2.0.0",
  "updatedAt": "2018-04-09T08:38:48.363Z"
}