{
  "contractName": "CMCOracle",
  "abi": [
    {
      "constant": true,
      "inputs": [],
      "name": "marketCap",
      "outputs": [
        {
          "name": "",
          "type": "uint256"
        }
      ],
      "payable": false,
      "stateMutability": "view",
      "type": "function"
    },
    {
      "constant": true,
      "inputs": [
        {
          "name": "",
          "type": "address"
        }
      ],
      "name": "purchasers",
      "outputs": [
        {
          "name": "",
          "type": "uint256"
        }
      ],
      "payable": false,
      "stateMutability": "view",
      "type": "function"
    },
    {
      "constant": true,
      "inputs": [],
      "name": "oracleFee",
      "outputs": [
        {
          "name": "",
          "type": "uint256"
        }
      ],
      "payable": false,
      "stateMutability": "view",
      "type": "function"
    },
    {
      "inputs": [],
      "payable": false,
      "stateMutability": "nonpayable",
      "type": "constructor"
    },
    {
      "anonymous": false,
      "inputs": [],
      "name": "CallbackMarketCap",
      "type": "event"
    },
    {
      "constant": false,
      "inputs": [],
      "name": "updateMarketCap",
      "outputs": [],
      "payable": true,
      "stateMutability": "payable",
      "type": "function"
    },
    {
      "constant": false,
      "inputs": [
        {
          "name": "cap",
          "type": "uint256"
        }
      ],
      "name": "setMarketCap",
      "outputs": [],
      "payable": false,
      "stateMutability": "nonpayable",
      "type": "function"
    },
    {
      "constant": true,
      "inputs": [],
      "name": "getBalance",
      "outputs": [
        {
          "name": "",
          "type": "uint256"
        }
      ],
      "payable": false,
      "stateMutability": "view",
      "type": "function"
    },
    {
      "constant": false,
      "inputs": [
        {
          "name": "fee",
          "type": "uint256"
        }
      ],
      "name": "setOracleFee",
      "outputs": [],
      "payable": false,
      "stateMutability": "nonpayable",
      "type": "function"
    }
  ],
  "bytecode": "0x6060604052341561000f57600080fd5b336000806101000a81548173ffffffffffffffffffffffffffffffffffffffff021916908373ffffffffffffffffffffffffffffffffffffffff1602179055506103668061005e6000396000f300606060405260043610610083576000357c0100000000000000000000000000000000000000000000000000000000900463ffffffff16806312065fe0146100885780632c135b93146100b157806339ad0212146100da57806375f9090d14610127578063b6d9ef6014610131578063ec710c7e14610154578063f9cd3ceb14610177575b600080fd5b341561009357600080fd5b61009b6101a0565b6040518082815260200191505060405180910390f35b34156100bc57600080fd5b6100c46101bf565b6040518082815260200191505060405180910390f35b34156100e557600080fd5b610111600480803573ffffffffffffffffffffffffffffffffffffffff169060200190919050506101c5565b6040518082815260200191505060405180910390f35b61012f6101dd565b005b341561013c57600080fd5b610152600480803590602001909190505061026a565b005b341561015f57600080fd5b61017560048080359060200190919050506102cf565b005b341561018257600080fd5b61018a610334565b6040518082815260200191505060405180910390f35b60003073ffffffffffffffffffffffffffffffffffffffff1631905090565b60015481565b60036020528060005260406000206000915090505481565b6002543410156101ec57610268565b600360003373ffffffffffffffffffffffffffffffffffffffff1673ffffffffffffffffffffffffffffffffffffffff168152602001908152602001600020600081548092919060010191905055507fd9f19cbab7d5e6f0fbe39dca2a2f43acd3e42606cf8907d60a4985a450f5b44960405160405180910390a15b565b6000809054906101000a900473ffffffffffffffffffffffffffffffffffffffff1673ffffffffffffffffffffffffffffffffffffffff163373ffffffffffffffffffffffffffffffffffffffff161415156102c557600080fd5b8060028190555050565b6000809054906101000a900473ffffffffffffffffffffffffffffffffffffffff1673ffffffffffffffffffffffffffffffffffffffff163373ffffffffffffffffffffffffffffffffffffffff1614151561032a57600080fd5b8060018190555050565b600254815600a165627a7a723058205bb2ee45ee0d3663fdf55b1853ed0369dbd3c65c07230b937e014d192a42cfac0029",
  "source": "pragma solidity ^0.4.19;\n\n\ncontract CMCOracle {\n    // Contract owner\n    address owner;\n    \n    // BTC Marketcap Storage\n    uint public marketCap;\n    uint256 public oracleFee;\n    \n    mapping (address => uint) public purchasers;\n\n    // Callback function\n    event CallbackMarketCap();\n\n    function CMCOracle() public {\n        owner = msg.sender;\n    }\n\n    function updateMarketCap() public payable {\n        \n        if (msg.value < oracleFee) return;\n     \n        // Calls the callback function\n        purchasers[msg.sender]++; \n        CallbackMarketCap();              \n    }\n\n    function setMarketCap(uint cap) public {\n        // If it isn't sent by a trusted oracle\n        // a.k.a ourselves, ignore it\n        require(msg.sender == owner);\n        marketCap = cap;\n    }\n\n    function getBalance() public view returns (uint256) {\n        return address(this).balance;\n    }\n\n    function setOracleFee(uint256 fee) public {\n        // If it isn't sent by a trusted oracle a.k.a ourselves, ignore it\n        require(msg.sender == owner);\n        oracleFee = fee;\n    }\n}",
  "sourcePath": "/Users/taff/Development/Ethereum/oracle/oracle-cmc/contracts/CMCOracle.sol",
  "compiler": {
    "name": "solc",
    "version": "0.4.19+commit.c4cbbb05.Emscripten.clang"
  },
  "schemaVersion": "2.0.0",
  "updatedAt": "2018-04-08T18:55:18.661Z"
}