{
  "contractName": "CMCOracle",
  "abi": [
    {
      "constant": true,
      "inputs": [
        {
          "name": "",
          "type": "uint256"
        }
      ],
      "name": "validKYCAccts",
      "outputs": [
        {
          "name": "",
          "type": "address"
        }
      ],
      "payable": false,
      "stateMutability": "view",
      "type": "function"
    },
    {
      "constant": true,
      "inputs": [],
      "name": "owner",
      "outputs": [
        {
          "name": "",
          "type": "address"
        }
      ],
      "payable": false,
      "stateMutability": "view",
      "type": "function"
    },
    {
      "constant": false,
      "inputs": [
        {
          "name": "newOwner",
          "type": "address"
        }
      ],
      "name": "transferOwnership",
      "outputs": [],
      "payable": false,
      "stateMutability": "nonpayable",
      "type": "function"
    },
    {
      "constant": true,
      "inputs": [],
      "name": "oracleFee",
      "outputs": [
        {
          "name": "",
          "type": "uint256"
        }
      ],
      "payable": false,
      "stateMutability": "view",
      "type": "function"
    },
    {
      "inputs": [],
      "payable": false,
      "stateMutability": "nonpayable",
      "type": "constructor"
    },
    {
      "payable": true,
      "stateMutability": "payable",
      "type": "fallback"
    },
    {
      "anonymous": false,
      "inputs": [],
      "name": "CallbackMarketCap",
      "type": "event"
    },
    {
      "anonymous": false,
      "inputs": [
        {
          "indexed": true,
          "name": "previousOwner",
          "type": "address"
        },
        {
          "indexed": true,
          "name": "newOwner",
          "type": "address"
        }
      ],
      "name": "OwnershipTransferred",
      "type": "event"
    },
    {
      "constant": false,
      "inputs": [
        {
          "name": "_marketCap",
          "type": "uint256"
        },
        {
          "name": "_marketCap24",
          "type": "uint256"
        },
        {
          "name": "_marketCappercentage",
          "type": "uint256"
        },
        {
          "name": "_activeCurrencies",
          "type": "uint256"
        },
        {
          "name": "_activeAssets",
          "type": "uint256"
        },
        {
          "name": "_activeMarkets",
          "type": "uint256"
        },
        {
          "name": "_lastUpdate",
          "type": "uint256"
        }
      ],
      "name": "setMarketCap",
      "outputs": [],
      "payable": true,
      "stateMutability": "payable",
      "type": "function"
    },
    {
      "constant": false,
      "inputs": [],
      "name": "withdrawEther",
      "outputs": [],
      "payable": false,
      "stateMutability": "nonpayable",
      "type": "function"
    },
    {
      "constant": false,
      "inputs": [
        {
          "name": "_validAddress",
          "type": "address"
        },
        {
          "name": "_fName",
          "type": "string"
        },
        {
          "name": "_lName",
          "type": "string"
        },
        {
          "name": "_isValid",
          "type": "bool"
        }
      ],
      "name": "setValidPurchaser",
      "outputs": [],
      "payable": true,
      "stateMutability": "payable",
      "type": "function"
    },
    {
      "constant": true,
      "inputs": [
        {
          "name": "_address",
          "type": "address"
        }
      ],
      "name": "getValidPurchaser",
      "outputs": [
        {
          "name": "",
          "type": "string"
        },
        {
          "name": "",
          "type": "string"
        }
      ],
      "payable": false,
      "stateMutability": "view",
      "type": "function"
    },
    {
      "constant": true,
      "inputs": [],
      "name": "countValidPurchasers",
      "outputs": [
        {
          "name": "",
          "type": "uint256"
        }
      ],
      "payable": false,
      "stateMutability": "view",
      "type": "function"
    },
    {
      "constant": false,
      "inputs": [
        {
          "name": "fee",
          "type": "uint256"
        }
      ],
      "name": "setOracleFee",
      "outputs": [],
      "payable": false,
      "stateMutability": "nonpayable",
      "type": "function"
    },
    {
      "constant": true,
      "inputs": [],
      "name": "getOracleFee",
      "outputs": [
        {
          "name": "",
          "type": "uint256"
        }
      ],
      "payable": false,
      "stateMutability": "view",
      "type": "function"
    },
    {
      "constant": false,
      "inputs": [],
      "name": "updateMarketCap",
      "outputs": [],
      "payable": true,
      "stateMutability": "payable",
      "type": "function"
    },
    {
      "constant": true,
      "inputs": [],
      "name": "getBalance",
      "outputs": [
        {
          "name": "",
          "type": "uint256"
        }
      ],
      "payable": false,
      "stateMutability": "view",
      "type": "function"
    },
    {
      "constant": true,
      "inputs": [],
      "name": "getMarketCap",
      "outputs": [
        {
          "name": "v1",
          "type": "uint256"
        },
        {
          "name": "v2",
          "type": "uint256"
        },
        {
          "name": "v3",
          "type": "uint256"
        },
        {
          "name": "v4",
          "type": "uint256"
        },
        {
          "name": "v5",
          "type": "uint256"
        },
        {
          "name": "v6",
          "type": "uint256"
        },
        {
          "name": "v7",
          "type": "uint256"
        }
      ],
      "payable": false,
      "stateMutability": "view",
      "type": "function"
    }
  ],
  "bytecode": "0x6060604052341561000f57600080fd5b61001761014d565b336000806101000a81548173ffffffffffffffffffffffffffffffffffffffff021916908373ffffffffffffffffffffffffffffffffffffffff160217905550336000806101000a81548173ffffffffffffffffffffffffffffffffffffffff021916908373ffffffffffffffffffffffffffffffffffffffff16021790555060e06040519081016040528060008152602001600081526020016000815260200160008152602001600081526020016000815260200160008152509050600380548060010182816100e8919061018b565b91600052602060002090600702016000839091909150600082015181600001556020820151816001015560408201518160020155606082015181600301556080820151816004015560a0820151816005015560c0820151816006015550505050610214565b60e060405190810160405280600081526020016000815260200160008152602001600081526020016000815260200160008152602001600081525090565b8154818355818115116101b8576007028160070283600052602060002091820191016101b791906101bd565b5b505050565b61021191905b8082111561020d57600080820160009055600182016000905560028201600090556003820160009055600482016000905560058201600090556006820160009055506007016101c3565b5090565b90565b611009806102236000396000f3006060604052600436106100d0576000357c0100000000000000000000000000000000000000000000000000000000900463ffffffff16806302c71c78146100d257806312065fe0146101355780632333ebe71461015e5780634cbc3667146101875780637362377b146101e857806375f9090d146101fd5780638da5cb5b1461020757806390825c281461025c578063ade1c580146102af578063b6d9ef60146102d8578063cd557bdd146102fb578063f2fde38b14610419578063f9cd3ceb14610452578063f9e3812d1461047b575b005b34156100dd57600080fd5b6100f360048080359060200190919050506104c9565b604051808273ffffffffffffffffffffffffffffffffffffffff1673ffffffffffffffffffffffffffffffffffffffff16815260200191505060405180910390f35b341561014057600080fd5b610148610508565b6040518082815260200191505060405180910390f35b341561016957600080fd5b610171610527565b6040518082815260200191505060405180910390f35b6101e6600480803573ffffffffffffffffffffffffffffffffffffffff1690602001909190803590602001908201803590602001919091929080359060200190820180359060200191909192908035151590602001909190505061058f565b005b34156101f357600080fd5b6101fb6106e0565b005b610205610794565b005b341561021257600080fd5b61021a6107d2565b604051808273ffffffffffffffffffffffffffffffffffffffff1673ffffffffffffffffffffffffffffffffffffffff16815260200191505060405180910390f35b341561026757600080fd5b61026f6107f7565b6040518088815260200187815260200186815260200185815260200184815260200183815260200182815260200197505050505050505060405180910390f35b34156102ba57600080fd5b6102c261091c565b6040518082815260200191505060405180910390f35b34156102e357600080fd5b6102f96004808035906020019091905050610926565b005b341561030657600080fd5b610332600480803573ffffffffffffffffffffffffffffffffffffffff1690602001909190505061098b565b604051808060200180602001838103835285818151815260200191508051906020019080838360005b8381101561037657808201518184015260208101905061035b565b50505050905090810190601f1680156103a35780820380516001836020036101000a031916815260200191505b50838103825284818151815260200191508051906020019080838360005b838110156103dc5780820151818401526020810190506103c1565b50505050905090810190601f1680156104095780820380516001836020036101000a031916815260200191505b5094505050505060405180910390f35b341561042457600080fd5b610450600480803573ffffffffffffffffffffffffffffffffffffffff16906020019091905050610bbb565b005b341561045d57600080fd5b610465610cd0565b6040518082815260200191505060405180910390f35b6104c76004808035906020019091908035906020019091908035906020019091908035906020019091908035906020019091908035906020019091908035906020019091905050610cd6565b005b6002818154811015156104d857fe5b90600052602060002090016000915054906101000a900473ffffffffffffffffffffffffffffffffffffffff1681565b60003073ffffffffffffffffffffffffffffffffffffffff1631905090565b60008060009054906101000a900473ffffffffffffffffffffffffffffffffffffffff1673ffffffffffffffffffffffffffffffffffffffff163373ffffffffffffffffffffffffffffffffffffffff1614151561058457600080fd5b600280549050905090565b60008060009054906101000a900473ffffffffffffffffffffffffffffffffffffffff1673ffffffffffffffffffffffffffffffffffffffff163373ffffffffffffffffffffffffffffffffffffffff161415156105ec57600080fd5b600160008873ffffffffffffffffffffffffffffffffffffffff1673ffffffffffffffffffffffffffffffffffffffff16815260200190815260200160002090508585826000019190610640929190610ef8565b508383826001019190610654929190610ef8565b50818160020160006101000a81548160ff0219169083151502179055506001600280548060010182816106879190610f78565b916000526020600020900160008a909190916101000a81548173ffffffffffffffffffffffffffffffffffffffff021916908373ffffffffffffffffffffffffffffffffffffffff160217905550505050505050505050565b6000809054906101000a900473ffffffffffffffffffffffffffffffffffffffff1673ffffffffffffffffffffffffffffffffffffffff163373ffffffffffffffffffffffffffffffffffffffff1614151561073b57600080fd5b3373ffffffffffffffffffffffffffffffffffffffff166108fc3073ffffffffffffffffffffffffffffffffffffffff16319081150290604051600060405180830381858888f19350505050151561079257600080fd5b565b6004543410156107a3576107d0565b7fd9f19cbab7d5e6f0fbe39dca2a2f43acd3e42606cf8907d60a4985a450f5b44960405160405180910390a15b565b6000809054906101000a900473ffffffffffffffffffffffffffffffffffffffff1681565b600080600080600080600061080b33610e44565b151561081657610913565b6003600081548110151561082657fe5b9060005260206000209060070201600001546003600081548110151561084857fe5b9060005260206000209060070201600101546003600081548110151561086a57fe5b9060005260206000209060070201600201546003600081548110151561088c57fe5b906000526020600020906007020160030154600360008154811015156108ae57fe5b906000526020600020906007020160040154600360008154811015156108d057fe5b906000526020600020906007020160050154600360008154811015156108f257fe5b90600052602060002090600702016006015496509650965096509650965096505b90919293949596565b6000600454905090565b6000809054906101000a900473ffffffffffffffffffffffffffffffffffffffff1673ffffffffffffffffffffffffffffffffffffffff163373ffffffffffffffffffffffffffffffffffffffff1614151561098157600080fd5b8060048190555050565b610993610fa4565b61099b610fa4565b6000809054906101000a900473ffffffffffffffffffffffffffffffffffffffff1673ffffffffffffffffffffffffffffffffffffffff163373ffffffffffffffffffffffffffffffffffffffff161415156109f657600080fd5b600160008473ffffffffffffffffffffffffffffffffffffffff1673ffffffffffffffffffffffffffffffffffffffff168152602001908152602001600020600001600160008573ffffffffffffffffffffffffffffffffffffffff1673ffffffffffffffffffffffffffffffffffffffff168152602001908152602001600020600101818054600181600116156101000203166002900480601f016020809104026020016040519081016040528092919081815260200182805460018160011615610100020316600290048015610b0f5780601f10610ae457610100808354040283529160200191610b0f565b820191906000526020600020905b815481529060010190602001808311610af257829003601f168201915b50505050509150808054600181600116156101000203166002900480601f016020809104026020016040519081016040528092919081815260200182805460018160011615610100020316600290048015610bab5780601f10610b8057610100808354040283529160200191610bab565b820191906000526020600020905b815481529060010190602001808311610b8e57829003601f168201915b5050505050905091509150915091565b6000809054906101000a900473ffffffffffffffffffffffffffffffffffffffff1673ffffffffffffffffffffffffffffffffffffffff163373ffffffffffffffffffffffffffffffffffffffff16141515610c1657600080fd5b600073ffffffffffffffffffffffffffffffffffffffff168173ffffffffffffffffffffffffffffffffffffffff1614151515610c5257600080fd5b8073ffffffffffffffffffffffffffffffffffffffff166000809054906101000a900473ffffffffffffffffffffffffffffffffffffffff1673ffffffffffffffffffffffffffffffffffffffff167f8be0079c531659141344cd1fd0a4f28419497f9722a3daafe3b4186f6b6457e060405160405180910390a350565b60045481565b6000809054906101000a900473ffffffffffffffffffffffffffffffffffffffff1673ffffffffffffffffffffffffffffffffffffffff163373ffffffffffffffffffffffffffffffffffffffff16141515610d3157600080fd5b8660036000815481101515610d4257fe5b9060005260206000209060070201600001819055508560036000815481101515610d6857fe5b9060005260206000209060070201600101819055508460036000815481101515610d8e57fe5b9060005260206000209060070201600201819055508360036000815481101515610db457fe5b9060005260206000209060070201600301819055508260036000815481101515610dda57fe5b9060005260206000209060070201600401819055508160036000815481101515610e0057fe5b9060005260206000209060070201600501819055508060036000815481101515610e2657fe5b90600052602060002090600702016006018190555050505050505050565b60008060009054906101000a900473ffffffffffffffffffffffffffffffffffffffff1673ffffffffffffffffffffffffffffffffffffffff163373ffffffffffffffffffffffffffffffffffffffff16141515610ea157600080fd5b600160008373ffffffffffffffffffffffffffffffffffffffff1673ffffffffffffffffffffffffffffffffffffffff16815260200190815260200160002060020160009054906101000a900460ff169050919050565b828054600181600116156101000203166002900490600052602060002090601f016020900481019282601f10610f3957803560ff1916838001178555610f67565b82800160010185558215610f67579182015b82811115610f66578235825591602001919060010190610f4b565b5b509050610f749190610fb8565b5090565b815481835581811511610f9f57818360005260206000209182019101610f9e9190610fb8565b5b505050565b602060405190810160405280600081525090565b610fda91905b80821115610fd6576000816000905550600101610fbe565b5090565b905600a165627a7a723058201e33b35ac17faa5ae13c759c54d744c81f04c5734a2ef7b669d93314424a0c5f0029",
  "source": "pragma solidity ^0.4.21;\n\nimport \"./ownable.sol\";\n\n\ncontract CMCOracle is Ownable {\n    \n    //Valid Users\n    struct KYC{\n        string fName;\n        string lName;\n        bool isValid;\n    }\n\n    mapping (address => KYC) kyc;\n    address[] public validKYCAccts;\n    \n    // BTC Marketcap Storage\n    struct MarketCapVals {\n        uint marketCap;\n        uint marketCap24;\n        uint marketCappercentage;\n        uint activeCurrencies;\n        uint activeAssets;\n        uint activeMarkets;\n        uint lastUpdate;\n    }\n\n    MarketCapVals[] marketValsStructs;\n\n    uint256 public oracleFee;\n    \n    // Callback function\n    event CallbackMarketCap();\n\n    function CMCOracle() public {\n        owner = msg.sender;\n\n        MarketCapVals memory marketCapValsStruct = MarketCapVals(0,0,0,0,0,0,0);\n        marketValsStructs.push(marketCapValsStruct);\n    }\n    \n    function () public payable {\n    } \n        \n    function setMarketCap(uint _marketCap, uint _marketCap24, uint _marketCappercentage, uint _activeCurrencies, uint _activeAssets, uint _activeMarkets,uint _lastUpdate) external payable onlyOwner {\n        \n        //MarketCapVals memory marketCapVals = MarketCapVals(_marketCap,_marketCap24,_marketCappercentage,_activeCurrencies,_activeAssets,_activeMarkets,_lastUpdate);\n        \n        marketValsStructs[0].marketCap = _marketCap;\n        marketValsStructs[0].marketCap24 = _marketCap24;\n        marketValsStructs[0].marketCappercentage = _marketCappercentage;\n        marketValsStructs[0].activeCurrencies = _activeCurrencies;\n        marketValsStructs[0].activeAssets = _activeAssets;\n        marketValsStructs[0].activeMarkets = _activeMarkets;\n        marketValsStructs[0].lastUpdate = _lastUpdate;\n\n    }\n    \n    function withdrawEther() external onlyOwner {\n        msg.sender.transfer(address(this).balance);\n    }\n\n    function setValidPurchaser(address _validAddress, string _fName, string _lName, bool _isValid) external payable onlyOwner {\n        \n        KYC storage kycClient = kyc[_validAddress];\n        \n        kycClient.fName = _fName;\n        kycClient.lName = _lName;\n        kycClient.isValid = _isValid;\n\n        validKYCAccts.push(_validAddress) - 1;\n    }\n\n    function getValidPurchaser(address _address) external view onlyOwner returns (string, string) {\n        return (kyc[_address].fName, kyc[_address].lName);\n    }\n\n    function countValidPurchasers() view external onlyOwner returns (uint) {\n        return validKYCAccts.length;\n    }\n\n    function isValidPurchaser(address _validAddress) private view onlyOwner returns (bool) {\n        \n        return (kyc[_validAddress].isValid);\n    }\n\n    function setOracleFee(uint256 fee) external onlyOwner {\n        oracleFee = fee;\n    }\n    \n    function getOracleFee() public view returns(uint256) {\n        return (oracleFee);\n    }\n        \n    function updateMarketCap() public payable {        \n        if (msg.value < oracleFee) return;     \n        // Calls the callback function         \n        emit CallbackMarketCap();              \n    }\n    \n    function getBalance() public view returns (uint256) {\n        return address(this).balance;\n    }\n\n    function getMarketCap() public view returns(uint v1, uint v2, uint v3, uint v4, uint v5, uint v6, uint v7) {\n        \n        if(!isValidPurchaser(msg.sender)) return;\n                \n        return(marketValsStructs[0].marketCap, \n            marketValsStructs[0].marketCap24,\n            marketValsStructs[0].marketCappercentage, \n            marketValsStructs[0].activeCurrencies,  \n            marketValsStructs[0].activeAssets,  \n            marketValsStructs[0].activeMarkets, \n            marketValsStructs[0].lastUpdate);\n    }\n\n\n}",
  "sourcePath": "/Users/taff/Development/Ethereum/oracle/oracle-cmc/contracts/CMCOracle.sol",
  "compiler": {
    "name": "solc",
    "version": "0.4.21+commit.dfe3193c.Emscripten.clang"
  },
  "schemaVersion": "2.0.0",
  "updatedAt": "2018-04-09T18:48:17.550Z"
}